:100000000C9434000C9451000C9451000C94510049
:100010000C9451000C9451000C9451000C9451001C
:100020000C9451000C9451000C9451000C9451000C
:100030000C9451000C9451000C9451000C945100FC
:100040000C9451000C9451000C949C000C945100A1
:100050000C9451000C9451000C9451000C945100DC
:100060000C9451000C94510011241FBECFEFD8E026
:10007000DEBFCDBF11E0A0E0B1E0E4E7F5E002C0F3
:1000800005900D92AC30B107D9F711E0ACE0B1E0CA
:1000900001C01D92AF38B107E1F70E9442010C94F4
:1000A000B8020C94000084B18C6284B924982A9A16
:1000B00082E58CBD08952A9898E29A95F1F78068B8
:1000C0008EBD0DB407FEFDCF1EBC0DB407FEFDCFE7
:1000D0002A9A8EB50895FC012A9888E28A95F1F74C
:1000E000606C6EBD0DB407FEFDCF442351F01EBC05
:1000F0000DB407FEFDCF8EB58083415011F03196CF
:10010000F6CF2A9A0895FC012A9888E28A95F1F799
:1001100060646EBD0DB407FEFDCF442359F08081AD
:100120008EBD0DB407FEFDCF8EB58083415011F01A
:100130003196F5CF2A9A08951F920F920FB60F921B
:1001400011248F93EF93FF938091C00084FD0EC024
:10015000E0910C01F0E08091C600E15FFE4F8083EA
:1001600080910C018F5F8F7780930C01FF91EF914D
:100170008F910F900FBE0F901F90189590910D01C9
:1001800080910C019817D1F3E0910D01F0E0E15F4F
:10019000FE4F808190910D019F5F9F7790930D019D
:1001A000089510920D0180910D0180930C01089526
:1001B000FC01662359F090818091C00085FFFCCF3F
:1001C0009093C600615011F03196F5CF0895FC016F
:1001D0009081992351F08091C00085FFFCCF9093CE
:1001E000C600319690819923B1F708956623A1F155
:1001F000DC0120E070E038E290910C0180910D016B
:10020000981791F4832F8A95F1F72F5F2436A0F386
:1002100041155105F9F04150504020E090910C01FA
:1002200080910D01981771F390910D0180910C014F
:100230009817D1F3E0910D01F0E0E15FFE4F90815E
:1002400080910D018F5F8F7780930D019D937F5F6C
:10025000761790F2872F089570E0FCCFA4ECB0E001
:1002600011961C921E92E0ECF0E080818260808307
:1002700088E98093C10086E08093C20011961C92A9
:100280001E9208952F923F924F925F926F927F92AB
:100290008F929F92AF92BF92CF92DF92EF92FF9296
:1002A0000F931F93DF93CF93CDB7DEB7A8970FB609
:1002B000F894DEBF0FBECDBF17B880E288B980EEDC
:1002C0008AB981E08BB90E942E010E945300F999EE
:1002D000FECF80E090E00E949E0280930E018F3F4F
:1002E00011F410920E017894DD245E010894A11C93
:1002F000B11C35E0232E312C2C0E3D1E3E010894FE
:10030000610871082EEF822E2FEF922E8C0E9D1E0B
:1003100094E0492E512C4C0E5D1E08EB1BE085E04D
:10032000C82E90910C0180910D01981709F453C0CB
:1003300090910D0180910C019817D1F3E0910D017E
:10034000F0E0E15FFE4FF08080910D018F5F8F77CD
:1003500080930D018FE18F1508F041C090910D0140
:1003600080910C019817D1F3E0910D01F0E0E15F6D
:10037000FE4FE08180910D018F5F8F7780930D019B
:100380008091C00085FFFCCFE093C60080E091E043
:100390000E94E700C8010197F1F7C8010197F1F742
:1003A000C8010197F1F7C8010197F1F710920D010B
:1003B00080910D0180930C01DD2029F4359B3BC019
:1003C0008BB180588BB9D39490910C0180910D0121
:1003D000981709F0ADCFC8010197F1F7EDCFEF2CD9
:1003E000EA94C5016E2D44E650E00E94F6009B8120
:1003F00060910E01961771F689818330C1F18430C6
:1004000009F462C0813009F486C08230A9F6F999F6
:10041000FECF80E090E00E94A602C98282E88A8333
:100420001B8280910E018C8389578D83C50165E005
:100430000E94D800C1CF8FE00E945B00982F80916E
:10044000C00085FFFCCF9093C60082E091E00E943F
:10045000E7005F9A27EC30E0C8010197F1F72150DF
:1004600030408FEF2F3F3807B9F75F98A9CF2C8125
:10047000FD80222309F047C06D8385E0F80EF982E4
:100480008BEFF80E83E88A831B826C838F2D90E0BC
:100490000496F501E80FF91F1082AC01415050405D
:1004A00020E0A0E0B0E0AA0DBB1D8C919081890FE7
:1004B00080832F5FA22FB0E04A175B07A4F7C50126
:1004C00069810E94D80078CFAE2DB0E0F301EA0F29
:1004D000FB1F8081813009F06FCFA80DB91D6C9191
:1004E000662329F58C8180930E01C98284E88A8372
:1004F0001B8280910E018C8387578D83C50165E037
:100500000E94D80059CFC101622F4F2D0E946B006D
:1005100060910E01B2CFC98281E88A831B829C83DD
:100520009A579D83C50165E00E94D80045CF89EFA9
:10053000F80EC2014F2D0E948300D7CFF999FECF4C
:1005400092BD81BDF89A992780B50895262FF99913
:10055000FECF92BD81BDF89A019700B4021639F022
:100560001FBA20BD0FB6F894FA9AF99A0FBE0895F3
:04057000F894FFCF2D
:0C0574002E0048656C6C6F210D0A000021
:00000001FF
