:100000000C943C000C9459000C9459000C94590029
:100010000C9459000C9459000C9459000C945900FC
:100020000C9459000C9459000C9459000C945900EC
:100030000C9459000C9459000C9459000C945900DC
:100040000C9459000C9459000C94A4000C94590081
:100050000C9459000C9459000C9459000C945900BC
:100060000C9459000C94590041010A0A00005A5A94
:10007000000000010000000011241FBECFEFD8E0F7
:10008000DEBFCDBF11E0A0E0B1E0E8EEF5E002C0D8
:1000900005900D92AC30B107D9F711E0ACE0B1E0BA
:1000A00001C01D92AF38B107E1F70E944A010C94DC
:1000B000F2020C94000084B18C6284B924982A9ACC
:1000C00082E58CBD08952A9898E29A95F1F78068A8
:1000D0008EBD0DB407FEFDCF1EBC0DB407FEFDCFD7
:1000E0002A9A8EB50895FC012A9888E28A95F1F73C
:1000F000606C6EBD0DB407FEFDCF442351F01EBCF5
:100100000DB407FEFDCF8EB58083415011F03196BE
:10011000F6CF2A9A0895FC012A9888E28A95F1F789
:1001200060646EBD0DB407FEFDCF442359F080819D
:100130008EBD0DB407FEFDCF8EB58083415011F00A
:100140003196F5CF2A9A08951F920F920FB60F920B
:1001500011248F93EF93FF938091C00084FD0EC014
:10016000E0910C01F0E08091C600E15FFE4F8083DA
:1001700080910C018F5F8F7780930C01FF91EF913D
:100180008F910F900FBE0F901F90189590910D01B9
:1001900080910C019817D1F3E0910D01F0E0E15F3F
:1001A000FE4F808190910D019F5F9F7790930D018D
:1001B000089510920D0180910D0180930C01089516
:1001C000FC01662359F090818091C00085FFFCCF2F
:1001D0009093C600615011F03196F5CF0895FC015F
:1001E0009081992351F08091C00085FFFCCF9093BE
:1001F000C600319690819923B1F708956623A1F145
:10020000DC0120E070E038E290910C0180910D015A
:10021000981791F4832F8A95F1F72F5F2436A0F376
:1002200041155105F9F04150504020E090910C01EA
:1002300080910D01981771F390910D0180910C013F
:100240009817D1F3E0910D01F0E0E15FFE4F90814E
:1002500080910D018F5F8F7780930D019D937F5F5C
:10026000761790F2872F089570E0FCCFA4ECB0E0F1
:1002700011961C921E92E0ECF0E0808182608083F7
:1002800088E98093C10086E08093C20011961C9299
:100290001E9208952F923F924F925F926F927F929B
:1002A0008F929F92AF92BF92CF92DF92EF92FF9286
:1002B0000F931F93DF93CF93CDB7DEB7A8970FB6F9
:1002C000F894DEBF0FBECDBF17B880E288B980EECC
:1002D0008AB981E08BB90E9436010E945B00F999CE
:1002E000FECF80E090E00E94D80280930E018F3F05
:1002F00011F410920E017894DD245E010894A11C83
:10030000B11C35E0232E312C2C0E3D1E3E010894ED
:10031000610871082EEF822E2FEF922E8C0E9D1EFB
:1003200094E0492E512C4C0E5D1E08EB1BE082E040
:10033000C82E90910C0180910D01981709F459C0B5
:1003400090910D0180910C019817D1F3E0910D016E
:10035000F0E0E15FFE4FF08080910D018F5F8F77BD
:1003600080930D0187E28F1508F047C0C8010197FF
:10037000F1F7C8010197F1F7C8010197F1F7C8013A
:100380000197F1F78091C00085FFFCCFC092C600B5
:1003900090910D0180910C019817D1F3E0910D011E
:1003A000F0E0E15FFE4FE08180910D018F5F8F777C
:1003B00080930D018091C00085FFFCCFE093C600C3
:1003C00080E091E00E94EF0010920D0180910D01FC
:1003D00080930C01DD2029F4359B3CC08BB1805803
:1003E0008BB9D39490910C0180910D01981709F06D
:1003F000A7CFC8010197F1F7EDCFEF2CEA94C50123
:100400006E2D44E650E00E94FE009B8160910E013B
:10041000961701F789818330C9F1843009F468C0E7
:10042000813009F49DC08230A9F6F999FECF80E0B1
:1004300090E00E94E00285E0898382E88A831B8243
:1004400080910E018C8389578D83C50165E00E94E0
:10045000E000C0CF8FE00E946300982F8091C00021
:1004600085FFFCCF9093C60082E091E00E94EF00F0
:100470005F9A27EC30E0C8010197F1F72150304036
:100480008FEF2F3F3807B9F75F98A8CF2C81FD80F9
:10049000222309F04EC06D8385E0F80EF9828BEFC0
:1004A000F80E83E88A831B826C838F2D90E0BC0159
:1004B0006C5F7F4FF501E60FF71F1082AC014D5FB7
:1004C0005F4F20E0E0E0F0E0D501A60FB71FEA0D96
:1004D000FB1D80819C91890F8C932F5FE22FF0E0B0
:1004E0004E175F07A4F7C50169810E94E00072CF33
:1004F000AE2DB0E0F301EA0FFB1F8081813009F0DF
:1005000069CFA80DB91D6C91662309F03EC08C819E
:1005100080930E0185E0898384E88A831B82809121
:100520000E018C8387578D83C50165E00E94E00032
:1005300051CF203410F1223A08F4AECFFF2061F100
:10054000E8E6F0E0D101FA942F2D30E0F39427593A
:100550003F4F84918D933196E217F307D1F79CCFEB
:1005600085E0898381E88A831B829C839A579D83D7
:10057000C50165E00E94E0002DCFC101622F4F2D23
:100580000E94730060910E0187CF89EFF80EC201BF
:100590004F2D0E948B00BECF85E0898383E88A833C
:1005A0001B829C831D8264E070E043E050E089CFB1
:1005B000F999FECF92BD81BDF89A992780B508952B
:1005C000262FF999FECF92BD81BDF89A019700B40C
:1005D000021639F01FBA20BD0FB6F894FA9AF99AAC
:0805E0000FBE0895F894FFCF4F
:0C05E8002E0048656C6C6F210D0A0000AD
:00000001FF
